:1040000000000320D15D0000BD5D0000BD5D00002B
:10401000BD5D0000BD5D0000BD5D00000000000052
:10402000000000000000000000000000BD5D000076
:10403000BD5D000000000000BD5D0000415E0000AD
:10404000BD5D0000BD5D0000BD5D0000BD5D000008
:10405000BD5D0000BD5D0000BD5D0000BD5D0000F8
:10406000BD5D0000BD5D0000BD5D0000BD5D0000E8
:10407000BD5D0000BD5D0000BD5D0000BD5D0000D8
:10408000BD5D0000BD5D0000BD5D0000BD5D0000C8
:10409000BD5D0000BD5D0000BD5D0000BD5D0000B8
:1040A000BD5D0000BD5D0000BD5D0000BD5D0000A8
:1040B000BD5D0000BD5D0000BD5D0000BD5D000098
:1040C000BD5D0000BD5D0000BD5D0000BD5D000088
:1040D000BD5D0000BD5D0000BD5D0000BD5D000078
:1040E000BD5D0000BD5D0000BD5D0000BD5D000068
:1040F00000000000BD5D0000BD5D0000BD5D000072
:10410000BD5D0000BD5D0000FD42000009430000F0
:104110000D4300001143000015430000214300003F
:104120002543000029430000BD5D0000BD5D000087
:10413000BD5D0000BD5D0000BD5D0000BD5D000017
:10414000BD5D0000BD5D0000BD5D0000BD5D000007
:10415000BD5D0000BD5D0000BD5D0000BD5D0000F7
:10416000BD5D0000BD5D0000BD5D0000BD5D0000E7
:10417000BD5D0000BD5D000000000000000000000B
:10418000C15D0000535E0000575E00005B5E0000F2
:1041900000000000BD5D0000BD5D0000BD5D0000D1
:1041A000BD5D0000BD5D0000BD5D0000BD5D0000A7
:1041B000BD5D0000BD5D0000BD5D0000BD5D000097
:1041C000BD5D0000BD5D0000BD5D0000BD5D000087
:1041D000BD5D0000BD5D0000BD5D0000BD5D000077
:1041E000BD5D0000BD5D0000BD5D00000000000081
:1041F000BD5D0000BD5D0000BD5D0000BD5D000057
:10420000BD5D0000BD5D0000BD5D0000BD5D000046
:10421000BD5D0000BD5D0000BD5D0000BD5D000036
:10422000BD5D0000BD5D0000BD5D0000BD5D000026
:10423000BD5D0000BD5D0000BD5D0000BD5D000016
:10424000BD5D0000BD5D0000BD5D0000BD5D000006
:10425000BD5D0000BD5D0000BD5D0000BD5D0000F6
:10426000BD5D000010B5054C237833B9044B13B184
:104270000448AFF300800123237010BD70020020BA
:1042800000000000C8B9000008B5034B1BB103498A
:104290000348AFF3008008BD000000007402002056
:1042A000C8B9000008B50021022002F07BF8012106
:1042B0000320BDE8084002F075B8000010B50220E8
:1042C00002F0DEF8044660B109490A4800F0B8F887
:1042D0000121032002F0AAF86420BDE8104001F09B
:1042E000F1BD0549034800F0ABF82146F1E700BFF6
:1042F00084AC00006407002096AC0000014801F087
:10430000A4BC00BFC8040020FFF7F8BFFFF7F6BF4A
:10431000FFF7F4BF014801F098BC00BF8C020020F9
:10432000FFF7F8BFFFF7F6BFFFF7F4BFF7B51B4C79
:104330001B4F1C491C4800F08FF81C49204600F018
:104340008BF81B49384600F087F81A491A4800F0E4
:1043500083F84FF08641194800F07EF81849194853
:1043600000F07AF81849194800F076F8012500267F
:104370001749184800F070F83946CDE9005628234F
:104380002922154801F0DAFBCDE9005652235322C9
:104390002146124801F0D2FB03B0F0BD1007002007
:1043A0001C070020003000400407002000340040BB
:1043B000002001410040014128070020340700206F
:1043C0000004004340070020000800434C07002081
:1043D000000C0043580700208C020020C804002075
:1043E0002DE9F04106460D4601EB02080C46444516
:1043F000A4EB050707D0336814F8011B1B6830468F
:1044000098470028F3D13846BDE8F08170B50446DE
:1044100008460D4603F054FD23680246294620460F
:104420005B68BDE87040184709B1FFF7EFBF084669
:10443000704700000149FFF7E9BF00BF58B5000011
:1044400038B50546FFF7F0FF04462846FFF7F2FFB0
:10445000204438BD10467047034B0160994214BF99
:104460000123002303717047000C004370B50668F8
:104470003568022B45EA827214BF4FF08074002425
:1044800044EA0204346000689DF81040426801F07C
:10449000070141EA841114BF5B0300230A431A4356
:1044A000426070BD10B5036812051C6802F440122A
:1044B0000904224301F440310A431A600268536838
:1044C00043F44033536010BD0268136843F00103A6
:1044D000136003681A68D107FCD4DA69D207F9D4EB
:1044E00070470268136843F0020313600268D369DF
:1044F0009B07FCD4704703681A7E12F0010F03D1AA
:104500001A7E12F0020FFAE77047036800225A83FE
:1045100070470368187EC0F3800070470368187EF8
:10452000C00970470268137E43F08003137670471A
:104530000368588BC0F3400070470268538B43F008
:104540000203538370470368187E00F00100704730
:104550000368986AC0B2704703681A7ED207FCD518
:10456000996201207047036801229A7570470368B9
:1045700001221A7570470000074A036800200101F4
:1045800089588B4201D140B2704701300828F6D1DA
:104590004FF0FF30704700BF5CB50000052A30B512
:1045A0002BD0284C09010C44B3B12179264C203181
:1045B00054F821506FF3861544F8215054F82150D7
:1045C0006D06FBD463B302710AB3012A2ED14123D5
:1045D00044F821301D4B0AE06179E7E7032A1A4CC1
:1045E0000CD1432244F8212013B14FF400438360DF
:1045F000154B53F821205206FBD530BD042AF7D1C4
:10460000442244F82120002BF2D0114BEFE7402345
:1046100044F821300F4BEAE7402344F82130E7E724
:10462000002AF9D0012A08D14123F6E7022AD5D180
:10463000422344F82130084BD9E7022ACED1422345
:10464000EBE700BF5CB50000001C0040006CDC0222
:10465000001BB700000E270700E1F5052DE9F0412A
:104660000546FFF789FF061E3BDB1F4B1F48DFF89F
:1046700080C032B203EB021204320424C0210127AD
:1046800032F9028FB8F1000F1FFA88F323DB4FEAEB
:10469000581E4FEA8E0E0EF1604E0EF5614EE0444C
:1046A00003F01F0307FA03F3CEF8803188F80013F4
:1046B000CEF80030013C14F0FF04E1D12A793146F4
:1046C00001232846FFF76AFF23462A793146BDE8D1
:1046D000F041FFF763BF03F00F03043B0344197677
:1046E000E8E7BDE8F08100BF5CB5000000ED00E048
:1046F00000E100E02DE9F04104460F4690461D46DA
:10470000FFF7ACFF2046FFF7DFFEB8004FEA483363
:1047100026689BB200F01C00184330602368842296
:10472000012F9A7514D12268B8F1010F91890CBF3D
:10473000102308235D43074BB3FBF5F363F34F31BD
:10474000918122689189C3F3CC0363F30C019181B9
:10475000BDE8F0810060E3163F20704713B502AB5F
:10476000026803F8011D546819460122A04702B0EF
:1047700010BD000008B50221006900F00DFD034BDB
:104780001B68B3F1FF3F18BF013008BD5000002087
:104790000321006900F014BD0321006900F0E0BCB2
:1047A00010B5054C2368591C04D103685B69984710
:1047B00003462060184610BD50000020064A1368CA
:1047C000591C03D10221006900F0DCBD4FF0FF311C
:1047D00011601846704700BF5000002038B51346DE
:1047E000094AD579044605F0FF0025B9627E12B169
:1047F0000123636006E00A462069032100F0D2FD30
:104800000028F5D038BD00BF04000020037803491C
:10481000023303704222024800F066BE0C00002002
:104820008007002010B502784378A12A08D1212BF7
:104830001BD107221549164800F056FE012010BD75
:10484000212A12D1202B12D107221049104800F042
:10485000F5FC0E4B1A68B2F5966F0ED1D87910F0B0
:1048600001040AD1FA2001F079FE0020E7E7222BAB
:1048700006D1064B8278DA71EBE701F075FEF4E7BA
:10488000232BF2D1034B42881A60EEE7040000208C
:104890008007002000000020054B00224FF47A71B1
:1048A000C3E9012103491960034919611A76704768
:1048B00064070020E4B500008007002070477047BF
:1048C00010B501F1080400F00F02D3B2092ACCBFE1
:1048D0003733303304F8013DA1424FEA1010F2D1D2
:1048E00010BD10B54FF4A071044601F0F7FE20464C
:1048F00010BD00000329F0B508D1294B53F8200062
:10490000D0B10368BDE8F0409B681847822914D1F4
:104910002449254AC3B201EB43150324AE6964F36D
:104920001E76AE61083302EB8010096868615B0196
:10493000CA5C64F30612CA54F0BD0029FCD1194DBB
:10494000C3B205EB43140327A26867F31E72A2608B
:10495000164A2D68800108335B0102446260EA5CFC
:104960004FF0010C6CF30202EA540F4AD4F818E03D
:10497000104467F31E7EC4F818E06061EA5C6CF3D3
:104980000612EA54EE18A368402262F39B33A36038
:10499000A36861F30D03A360337913433371CBE74D
:1049A00084070020380C0020AC0700206C09002090
:1049B000EFF3108202600122426072B67047036812
:1049C00013B962B6BFF36F8F7047D0F8183137B59F
:1049D0000446DBB990F82C516846FFF7E9FF019BCC
:1049E000EDB213F1FF3303D394F82C51EDB2F8E795
:1049F00068460193FFF7E3FF15B9002003B030BD0F
:104A0000D4F82801D4F82431C01AF7E76846FFF734
:104A1000CFFF019B002513F1FF3303D394F83C51E2
:104A2000EDB2F8E768460193FFF7C9FF002DE4D027
:104A3000D4F83801D4F83431E6E710B5416890F87D
:104A40001021D0F8144101EB42130832986864F346
:104A50009B30986098686FF30D0098600B6803EBCB
:104A600042131A7942F040021A7110BD37B54368FB
:104A700090F810211B68083203EB42130446DA79E0
:104A8000D00759D50125DD71D4F810216368D4F819
:104A90001C11D2B203EB42139A68C2F30D0229BB78
:104AA000C4F82821D4F82821002A42D0D4F8302193
:104AB000C4F81C5168465A60FFF77AFF019B013B1E
:104AC000591C32D084F82C5194F83C21591E02F024
:104AD000FF003AB184F83D5168460193FFF76FFF3C
:104AE00003B030BD84F83D010B46E9E7C4F8382136
:104AF000D4F83821EAB10022C4F81C21D4F82021CE
:104B00005A606846FFF754FF019B013B5A1C0CD0CA
:104B100084F83C5194F82C21591E02F0FF00002A21
:104B2000D8D184F83D010B46F0E768460193FFF7C2
:104B300046FF2046FFF781FF636894F810211B6849
:104B4000083203EB42137F22DA71C9E7F7B5044656
:104B50006846FFF72DFF019B002613F1FF3315D3A5
:104B6000D4F80811D4F80C219142ADBFD4F80861F3
:104B7000D4F80C61D4F80821D4F80C21ABBFC6F1ED
:104B8000FF06B61AB61806F1FF36E6E76846019347
:104B9000FFF715FFD4F818316846002B5CD1FFF7FA
:104BA00007FF019B013B5D1C0ED094F82C21591E80
:104BB00002F0FF0532B968460193FFF700FF28466F
:104BC00003B0F0BD0B46EEE768460193FFF7F7FE32
:104BD0000025B542D4F824311DD0D4F828219A42BA
:104BE00019D9D4F82021591CC4F82411D15CD4F867
:104BF0000831D4F80C210133DBB293421CBFD4F846
:104C000008211219C9B218BF117205F1010518BFA8
:104C1000C4F80831DDE7D4F828219A42CFD1002624
:104C20000123C4F82461C4F818316846FFF7C0FEB8
:104C30003746019B013B581CBDD084F82C6194F889
:104C40003D21591E32B184F83D7120460193FFF792
:104C5000F4FEEEE70B46EEE7FFF7AAFE019B013BF1
:104C6000591C08D094F83C21591E02F0FF05002A77
:104C7000A1D00B46F4E768460193FFF7A0FE00259C
:104C8000B542D4F8343103D0D4F838219A421DD833
:104C9000D4F838219A4292D10026C4F83461C4F87D
:104CA00018616846FFF784FE3746019B013B5A1C9A
:104CB00081D084F83C6194F83D21591E02B384F8F8
:104CC0003D7120460193FFF7B8FEEEE7D4F830219E
:104CD000591CC4F83411D15CD4F80831D4F80C2133
:104CE0000133DBB293421CBFD4F808211219C9B2B8
:104CF00018BF117205F1010518BFC4F80831BFE7EC
:104D00000B46D4E710B50446FFF720FFD4F80C217A
:104D1000D4F808319A421BBFD4F80C31E4184FF094
:104D2000FF30207A10BD10B50446FFF70FFFD4F80E
:104D30000801D4F80C31C01A48BF00F5807010BDCE
:104D4000F7B50E4617460446FFF700FF6846FFF723
:104D50002FFE019B0025013B5A1C23D0BD421CD2D3
:104D6000D4F80801D4F80C21801A48BF00F58070EF
:104D700098B1D4F80C11D4F8082191420FD0D4F88E
:104D80000C21D4F80C0122440130127AC0B2C4F8CC
:104D90000C01104670550135E0E7013BDCE74FF0B0
:104DA000FF30F7E768460193FFF709FE284603B096
:104DB000F0BD37B502AD002305F8013D0C4628468D
:104DC000FFF724FD23681844206001F037FC2946D2
:104DD00001F0F6FB2368184420609DF8070003B03B
:104DE00030BD000001F0FD03012B10B50C460BD1C6
:104DF0000C4B1B68083403EB4414237943F0800305
:104E000023710223E37110BD01F018FC214601F06B
:104E100006FC0028F7D0034B1B68083403EB44144E
:104E20007F23EFE7380C0020464B70B501210025A9
:104E300006460D201D7001F0B5FA01210D2001F08C
:104E4000F5FA414B414C1D7001210D2001F0AAFAE9
:104E500001210D2001F0EAFA3D4B3E489A6942F0EB
:104E600001029A611A6942F480621A613A4B93F81E
:104E7000582042F0010283F8582093F83C2002F0B9
:104E8000F00283F83C2093F83C2042F0070283F8BC
:104E90003C2093F8592042F0010283F8592093F8FE
:104EA0003C2002F00F0283F83C2093F83C2042F0B3
:104EB000700283F83C20294B4122C3F8A82000F05F
:104EC000CFFF204601F0CCFB204601F0E3FB226837
:104ED000D378022161F38303D3702268D37861F31E
:104EE0000103D3702268137865F3C7131370226827
:104EF000137843F00403137023681A8965F383025F
:104F00001A81174B83F8505383F8515383F8525347
:104F100083F853534FF480329A604FF400329A6012
:104F20004FF480229A604FF400229A60226813782E
:104F30000B431370226893789B07FCD401233370D2
:104F400070BD00BFA1070020A0070020380C002082
:104F5000000800409959000000800041001C0040FA
:104F600000E100E0007880B1084B1B681A896FF3FC
:104F700000021A811A8B42F008021A831A8B42F03F
:104F800004021A83024B00221A607047380C00207A
:104F9000300C00200E4B9A696FF30D029A611B686A
:104FA000022283F8072193F8052142F0800283F85A
:104FB000052193F807219207FBD54FF082439A7A97
:104FC00061F306029A729A7A42F080029A727047EE
:104FD000380C00200B7910B50C465BB90846FFF77A
:104FE00021FC08B1012010BD094B9A6960F30D0244
:104FF0009A61F7E701F022FB214601F002FB00284D
:10500000F0D1034B9A6960F30D029A61EBE700BFA0
:10501000380C0020832A2DE9F0410D4616D1CBB281
:105020004249434A01EB43100326846966F31E7428
:105030008461083302EB8515096845615B01042032
:10504000CA5C60F30612CA54BDE8F081022A67D137
:10505000384E56F8210010B103689B6998474FF409
:10506000A07000F07BFF4FF48077334BDFF8BC80FB
:10507000036004463A460021C0F80480083001F07D
:10508000FAFF0023C4F80831C4F82431C4F80C3105
:10509000C4F83431C4F81831C4F81051C4F81C31C4
:1050A000C4F81471C4F82831384684F82C31C4F897
:1050B000383184F83C3184F83D3101F0C1FFC4F847
:1050C0002001384601F0BCFFEBB208EB4312C4F8F4
:1050D00030019168032060F31E7191600833D8F8A5
:1050E00000105B01CA5C60F30202CA54636894F862
:1050F0001011D4F8202103EB411320465A60636855
:1051000094F810211B6803EB421393F8092142F035
:10511000010283F80921FFF790FC46F8254093E748
:1051200028461146BDE8F041FFF7E4BB380C0020EB
:10513000AC070020840700200CB6000070B5074EB5
:105140000546012456F8242032B121462846013470
:10515000FFF760FF0A2CF5D170BD00BF540000209E
:105160000B4BC8B203EB81110A4B03EB4012083022
:10517000516191696FF30D0191611B6803EB40135D
:105180000222DA715A7942F080025A71704700BFE8
:10519000AC070020380C0020074B53F8210010B159
:1051A0000368DB681847054BC9B203EB41118868F7
:1051B000C0F30D00704700BF84070020380C0020AA
:1051C00010B50C46FFF7E8FF58B1064BE4B219687A
:1051D000083401EB44114B7943F080034B710223F7
:1051E000CB7110BD380C0020124B30B5CAB203EBA6
:1051F0008111114B5501581908244160816864F3ED
:105200009B31816081686FF30D01816018682244D1
:1052100000EB42110C7944F040040C718C79640667
:10522000FCD500EB4212D179C907FCD52B44986814
:10523000C0B230BD6C090020380C002038B50C4BD2
:1052400014461A6892F8043143F0400382F804319E
:105250000D460021FFF7C8FF0649A04228BF20469F
:105260000023A34203D05A5CEA540133F9E738BD66
:10527000380C00206C09002010B50B4BC9B2490155
:1052800058180B448268C2F30D023F2A89BF846814
:105290008268403A62F30D0496BF6FF30D0284609A
:1052A00082609868C0B210BD380C00202DE9F0472C
:1052B0001D462F4B1B6807460E469146002B54D0C7
:1052C0002C4C227802F0FF0112B90D2001F0AEF84B
:1052D00064232370284B53F8260030B103682A4614
:1052E00049465B68BDE8F047184731463846FFF746
:1052F00053FF854204D931463846FFF74DFF054636
:10530000DFF87CA031463846FFF7B6FFF4B2DAF892
:1053100000301A494FEA4418434401EB861193F8D0
:10532000082142F0010283F8082148462A4601F08C
:1053300097FEBDB131463846FFF72EFF90B9DAF837
:10534000002004F1080302EB4313197941F04001F6
:1053500019710121D97102EB080393F809210A435D
:1053600083F809212846BDE8F0874FF0FF35F9E7BB
:10537000300C0020A0070020840700206C090020CA
:10538000380C002007B501230DF10702FFF78EFF4F
:1053900001280CBF9DF807004FF0FF3003B05DF807
:1053A00004FB00002DE9F74F9846384B1B688946EF
:1053B0009246002B42D0B8F5804F3FD8344C22782B
:1053C00002F0FF0112B90D2001F030F864232370C0
:1053D0005FFA89F42F4B04F1080B4FEA4B1203EBF1
:1053E000891300260192B8F1000F29D02A4A0199A9
:1053F0001568691889790092C909284924D0284A72
:1054000028481268B2FBF0F0274A42431720B2FB4B
:10541000F0F205EB4B10C779BF0715D411F80970EE
:1054200017B912F1FF32F6D2012301F80930009BBF
:1054300003EB4414A3696FF30D03A3614FF0FF3630
:10544000304603B0BDE8F08F4746402F28BF4027C5
:10545000002201F80920184651463A4601F000FEA4
:10546000009A02EB441205EB4B155061916967F30A
:105470000D0191610222EA716A7942F080020346CD
:105480006A713E44A8EB0708BA44ACE7300C002030
:10549000A1070020AC070020380C0020A307002043
:1054A0007C00002040420F007011010070B50C4CD0
:1054B0000D4604EB8514114620461A461E4601F09F
:1054C000CFFD0849EDB201EB451130464C618B69C7
:1054D0006FF39B338B618B6966F30D038B6170BD3A
:1054E000AC070020380C0020114B1B782DE9F0414F
:1054F00007468846164653B90E4B1C7854B10E4DDC
:105500000E482C882044344401F0AAFD2C803046FB
:10551000BDE8F0811546002DF9D02B4608EB0402BA
:1055200000213846FFF7C2FF04442D1AF3E700BFFD
:105530002C0B00202D0C00202E0C00202D0B002009
:10554000F8B5012A00AF0D4614462BD9D31D03F43C
:10555000FC73ADEB030D084602F0B2FC01304000D5
:1055600003238DF800008DF801306E46013D0223C3
:105570000020A3420CD215F8011F49B15A1CD2B227
:105580009442F15403D00233B054DBB2F1E7234626
:105590001A4631460448FFF7A7FF003018BF012024
:1055A000BD46F8BD0020FBE7800700202DE9F04351
:1055B00085B004AE002446F8104DDFF88890884688
:1055C00001273146054689F80070FFF7F2FB40F2EB
:1055D0000923ADF80430A0238DF80B3032238DF869
:1055E0000C30009B8DF80A400933B8F1090F8DF893
:1055F0000970ADF806308DF8080089F8004008D130
:10560000424601A92846FFF76FFF012005B0BDE81B
:10561000F083DFF83480009488F80070074F092287
:1056200001A928463C80FFF75FFF31462846FFF777
:10563000C0FB88F800403A880149E3E72E0C0020BF
:105640002D0B00202C0B00202D0C0020F0B5CF7866
:10565000022F93B006460D4608D1C9882D48FFF7A2
:10566000A5FF003018BF012013B0F0BD00F0E6FF29
:10567000294600F0B8FF041E03D0CCBF0120002053
:10568000F2E7012F0ED1EA88082A09D0112A22490F
:1056900010D8D2B272B13046FFF726FF0120E3E7FF
:1056A0001E49F6E7032F32D1AB782BB9EA88032ADB
:1056B0002AD91B490A78EEE7022B05D1AA791949A4
:1056C0003046FFF73DFFCFE7012B02D1AA791649FB
:1056D000F6E7032B1BD1154B01A91868FFF7F0F86B
:1056E000134B03A91868FFF7EBF8124B05A91868CC
:1056F000FFF7E6F8104B07A91868FFF7E1F88DF8F7
:105700002440AA7901A9DBE7D2B20549C2E72046C5
:10571000AAE700BF8007002051B6000063B6000072
:1057200040B600002CB6000044B60000FC618000CA
:1057300010608000146080001860800037B54B78DE
:105740000C460B2B0FD8DFE803F0061E0E2F0E457C
:1057500049774C4F6B6E097841B9ADF804100223BC
:1057600001AAFFF7A3FE012003B030BD0023ADF86E
:105770000430324B1B78012B08BF8DF8043001AA8E
:1057800002230021EDE78B78012B4FF0000303D1BA
:10579000ADF804302A4BEDE7284A1370294A916985
:1057A00063F30D019161DEE78C78012C07D1244B66
:1057B00002AA00211C7002F8041D2346D1E7012033
:1057C000002CD1D11D4B18701E4B9A6964F30D0249
:1057D0009A61C9E78978FFF7DDFBC4E7FFF736FF79
:1057E000C2E70123184ACCE70B7813F01F0523D139
:1057F000FFF7A4FC144BA2781A60124A136893F8BE
:10580000291141F0020183F8291193F8491141F05F
:10581000010183F84911936965F30D039361A2E7D0
:1058200001230A4AADE7094B8A781A60054B9A6949
:105830006FF30D029A6196E7002095E7A20700201A
:10584000AA070020380C0020300C0020340C002067
:105850004A4B2DE9F0411D780646002D7ED1484C7B
:1058600023689B8B1B070ED529462846FFF742F875
:10587000236893F8092142F0100283F80921414A74
:10588000156008229A8323689A8B57071BD5042238
:105890009A833D4A13784BB11378013BDBB2137006
:1058A00013781BB901210D2000F0C0FD374A137891
:1058B0004BB11378013BDBB2137013781BB9012194
:1058C0000D2000F0B3FD236893F80721D50626D5F7
:1058D000102283F8072193F804212D4942F0400259
:1058E00083F804210B7813F0600F304638D1FFF7AE
:1058F00025FF2368002836D093F8052142F0800266
:1059000083F8052193F80721500608D5402283F833
:10591000072193F8082142F0400283F80821236808
:10592000DFF870801F8C012507F0FE0747FA05F3AA
:10593000D90710D5236805F1080203EB4213DA7981
:10594000D20702D4DB799B0705D558F8250080B132
:1059500003681B6898470135082DE7D1BDE8F08141
:10596000FFF738FBC5E74FF08242202182F805118E
:10597000C8E7E9B23046FFF735FAECE72D0C002016
:10598000380C0020300C0020A1070020A0070020C8
:105990006C090020840700200148FFF759BF00BFB1
:1059A00080070020024B4FF082421A60704700BF10
:1059B000380C002001207047036840F213421B6A34
:1059C0001847D0F81821D0F814319A421DBFD0F8EA
:1059D0001831C018007D4FF0FF30704710B50446F5
:1059E0000069FEF771FD0023C4F81431C4F81831C2
:1059F000C4F81C32C4F8203210BD01F0F001A1F14E
:105A0000300358425841704701F47061B1F5007F8E
:105A100008D0B1F5407F07D0B1F5807F0CBF0520DD
:105A200000207047062070470720704701F00F01E3
:105A3000012904D002290CBF012002207047002058
:105A4000704700002DE9F3410446334D90F82402DD
:105A5000182606FB0053884693F90810174600F0F5
:105A600027FD94F8250206FB005393F9081000F077
:105A70001FFD94F82732022B09D194F83802FF2831
:105A800005D006FB005696F9081000F011FD94F8B9
:105A90002802FF2817D0012100F084FC94F8282266
:105AA00018235343E918EA561C4B4968D2011344A2
:105AB000C4F82C321A4B134401228A40C4F8303205
:105AC000C4F834221A600122434611462069FEF7C9
:105AD00011FE39462046FFF797FF39460546204616
:105AE000FFF7A4FF394602462046FFF786FF294606
:105AF0001346009001222069FEF7B8FC206994F853
:105B0000262294F82712FEF7CDFC206902B0BDE8EA
:105B1000F041FEF7E6BC00BFA0AC000018800041D9
:105B20001480004108B54FF48072002101F0A3FAFF
:105B30000022C0F80021C0F8042108BDF8B51646BF
:105B40001D4600224FF47A73C0E901230F4B04462F
:105B500040F8143B0F46FFF7E5FF04F58E70FFF7A2
:105B6000E1FF9DF8183084F826329DF81C3084F847
:105B70002732FF23276184F8246284F8255284F8B1
:105B8000283284F838322046F8BD00BF80B60000C5
:105B9000D0F80021D0F804319A42A5BFD0F80031E6
:105BA000D0F80421D0F80431C3F1FF00AFBF801852
:105BB000D0F80001181A00F1FF30704708B500F561
:105BC0008E70FFF7E5FF08BD38B5D0F81821D0F882
:105BD00014319A421BBFD0F818311B184FF0FF3513
:105BE0001D7D1FBFD0F818310133DBB2C0F818316A
:105BF00090F82832FF2B044609D01430FFF7C8FF75
:105C00000A28C2BFD4F83032D4F834221A602846A9
:105C100038BDD0F80031D0F80401181A48BF00F59B
:105C20008070704738B5044600F58E752846FFF73A
:105C3000F0FF0028FAD12069BDE83840FEF75BBCD0
:105C400008B51430FFF7E5FF08BD10B5044600693C
:105C5000FEF76EFC28B12069FEF77AFC2069FEF79A
:105C60006CFC2069FEF755FCF8B12069FEF770FC6A
:105C7000D4F81431D4F818210133DBB293421FBF9A
:105C8000D4F8142112191075C4F8143194F828327C
:105C9000FF2B0AD004F11400FFF77AFF0928DEBFBA
:105CA000D4F82C32D4F834221A602069FEF74BFC69
:105CB000E0B104F58E70FFF7ACFF18B3D4F82022E2
:105CC000D4F81C3220699A421BBFD4F820321B1929
:105CD0004FF0FF3193F81C111FBFD4F8203201336D
:105CE000DBB2C4F82032C9B2FEF736FC2069FEF7F9
:105CF00015FC58B12069FEF715FC2069BDE810407D
:105D0000FEF703BC2069FEF732FCEFE710BD000090
:105D1000F8B5074600690C46FEF715FC00283ED191
:105D2000244D254ED7F81C32D7F820220133DBB2A0
:105D300093421FD1EFF31083DB0712D46B68C3F3D8
:105D40000803002BEED0103B9BB21AB2002ABBBF57
:105D500003F00F03043B92195B19ACBF92F80033B8
:105D60001B7E3869FEF7EFFB0028DBD03846FFF7D3
:105D70006CFFD7E7D7F81C32D7F820220133DBB20B
:105D800093421EBFD7F81C22D21982F81C413869F1
:105D900018BFC7F81C32FEF7E6FB0120F8BD07F577
:105DA0008E70FFF736FF0028BAD121463869FEF71A
:105DB000D3FBF2E700ED00E000E100E0FEE70000C9
:105DC000024B1B6803B11847704700BF3C0D002011
:105DD00008B51549154B8B420FD1154AD2F88830BA
:105DE00043F47003C2F88830BFF34F8FBFF36F8F57
:105DF00000F0D2F800F09AF8FEE70E4A9A42ECD092
:105E00008B42104605D39A42E7D00B4B0B4A002138
:105E100006E0006843F8040B0432F1E743F8041B82
:105E20009342FBD3D9E700BF70020020000000209E
:105E300000ED00E0CCB9000070020020600D0020F1
:105E400008B500F05CF818B9BDE8084000F04EB89D
:105E500008BDFFF7B5BFFFF7B3BFFFF7B1BF000045
:105E6000014B1860704700BF3C0D0020124A1349D7
:105E7000F0B5134D97684B682E68C3F38063906844
:105E80004C68D5F800C0C4F38064A3420FD16645C6
:105E90000DD187420BD3526842F22220D21B5043CD
:105EA00033444FF47A72534303EB1050F0BD66460F
:105EB00023460746E3E700BF10E000E000ED00E006
:105EC000400D002038B5044670B1FFF7CFFF0546FE
:105ED00000F014F8FFF7CAFF401BB0F57A7FF7D344
:105EE000013C05F57A75F5D138BD0000024A13680A
:105EF0000133136000F040BB400D002070470020CC
:105F00007047704708B5FEF7CDF9054CFEF7D6F996
:105F1000FFF7F4FF002CF9D0AFF30080F6E700BFE5
:105F20000000000008B5FFF7EDFF000010B50A4CB7
:105F300000F02EF901F060F8FFF7E3FF0120FFF712
:105F4000C1FF2046FEF770FF2046FFF70BF8FFF772
:105F5000E9FF002010BD00BF8007002001F070B8ED
:105F600001F076B810B50246EFF3108172B6084B17
:105F7000186808B90748186018680244EFF30884E5
:105F8000A24234BF1A604FF0FF3001B962B610BDB3
:105F9000440D0020600D00206E4A13889BB21380D0
:105FA0006D4B42F20E029A82DA68D107FCD56B4B38
:105FB0001A7842F001021A705A68D207FCD440F2F3
:105FC0000512DA625A689006FCD44FF48272634973
:105FD0001A624A6812F00402FBD1614B1A77614AD7
:105FE0009A6293F82C2012F01002FAD183F8202044
:105FF0005B4B1A4693F82C104907FBD4197F41F0EC
:106000000201197792F82C309807FBD4536A536237
:10601000534B1A4693F82C100907FBD4982183F8A8
:1060200020101369D805FCD54C4B4F4A5A635A6867
:106030001106FCD44522C3F88420494B77225A63C9
:10604000DA6B5207FCD44FF400629A63022283F8A1
:106050003020434B1A6C9007FCD51A6CD107F9D548
:106060003E4A4521C2F8881063229A643C4B1A6D5F
:106070005207FCD44FF40062DA64022283F8442011
:10608000374B5A6D9007FCD55A6DD107F9D5334B74
:1060900040F206325A625A681207FCD44FF4427238
:1060A0009A625A68D006FCD4304A1A632B4B1A46BF
:1060B00059684906FCD440F207311962536813F05D
:1060C0000403FBD12A4901224A7101F580518869F4
:1060D00063F38200886172B6264B9A6062B6264AE4
:1060E000D36843F08073D360244A136843F00103FC
:1060F00013604FF08013224A1B6803F00301918460
:10610000C3F30222C3F34211120142EA0122C3F394
:1061100082010A431B49A1F84820C3F38252C3F30A
:10612000C241120142EA0122C3F302431343164A59
:10613000A2F84830154B1A6802F01F01C2F344134D
:1061400043EA8113C2F3822243EA02334FF08242D0
:10615000138570470040004100140040001C0040BF
:106160000010004000000104060130000603040096
:106170000008004000600041F0ED00E0001000E089
:1061800000200042001C00430020004384008000E7
:106190004C4BF7B51B684FF47A72B3FBF2F3013B3B
:1061A000B3F1807F80F08B8047494B60474BC02222
:1061B00083F82320072000228A600860802183F86A
:1061C0002310434B596941F470415961996941F475
:1061D000FC419961D96941F07801D961196A6FEA86
:1061E00091216FEA8121196203F5A0534121C3F87F
:1061F0002011C3F8241103F14073009303F5806369
:1062000001930424022505264FF4C0575DF822307F
:10621000198864F30A211980D98865F3C401D980EB
:10622000196B0807FCD4DE72196B4906FCD49F80F9
:10623000196B11F00401FBD19972186B10F020005A
:10624000FBD1002A3CD000F049F8224B4422C3F88D
:106250002821D3F828215006FBD51F4A1346916800
:10626000C907FCD4117841F0010111709A68D20776
:10627000FCD400245C709A89022161F30B229A817C
:10628000DA8961F30B22DA8101215B2000F08AF8C0
:1062900001215B2000F0CAF801215C2000F082F8A7
:1062A00021465C2000F0C2F801212C2000F07AF891
:1062B00021462C2003B0BDE8F04000F0B7B8FEE75F
:1062C0000122A3E77C00002010E000E000ED00E0E8
:1062D00000080040001C0040002400432E4B1A46DA
:1062E000196BC906FCD42D490B6BDB06FCD40138B5
:1062F0002A4B0A284CD8DFE800F0061B212529325A
:106300004B363A483E00264BDA696FF31342DA61A6
:10631000DA6942F00402DA611F4A137A6FF3030369
:10632000137292F808346FF3030382F8083470474D
:106330001B4BDA69012161F31342E8E7184B022194
:10634000DA69F8E7164B0321DA69F4E7144BDA69E6
:10635000042161F31342DA61DA690A43DBE7104B87
:106360000521DA69E7E70E4B0621DA69E3E70C4B12
:106370000721DA69DFE7117A042060F30301117263
:106380001A7A60F303021A727047117A0220F4E756
:10639000117A0320F1E700BF001C004300200043F6
:1063A00000180040182310B51F4C5843221892F9CA
:1063B0000830013313D0526823560120904003293E
:1063C0000DD8DFE801F002250D19DB0103F182434E
:1063D00003F500431A44022182F84010586010BDB2
:1063E000DB0103F1824303F500431A44062182F8DE
:1063F000401058609861F2E7DB0103F1824303F536
:1064000000431A44062182F8401058605861E6E7BC
:10641000DB0103F1824303F500431A44022182F8B1
:1064200040109860DBE700BFA0AC0000182330B537
:10643000114D58432B1893F90820013219D05C688C
:106440002B56D80100F1824303F5004301229D68D9
:10645000A240154209D123440D1C93F8404018BFB7
:10646000012565F3820483F84040044B034409B9D5
:106470005A6130BD9A61FCE7A0AC00000080004189
:1064800018230A4958430A1892F9083001330BD0EF
:106490000B56DB0103F1824303F50043186A53688E
:1064A000D84000F00100704700207047A0AC000009
:1064B00038B51822274D4243AC1894F90830B3F18F
:1064C000FF3F44D00D2905DC002915DA4B1C09D00B
:1064D000002008E01129FBDC0F2905D10021FFF77E
:1064E00061FFF5E7084638BD102901D10221F6E722
:1064F0001129EDD10121F2E7AD566468164BED018B
:1065000062082B4414F00100C9B21A4410D092F86A
:10651000300000F00F0040EA01112344C9B282F8B4
:10652000301093F8402042F0410283F84020CFE73A
:1065300092F8305005F0F0052344294382F83010DA
:1065400093F8402042F0410283F84020CBE7184600
:10655000C9E700BFA0AC000000800041014B1860FB
:10656000704700BF80000020024B4FF0FF321A60DE
:10657000704700BF800000200C4A1368591C13D0DC
:10658000013B136083B972B6094B0A4A1A60BFF324
:106590004F8F0949094BCA6802F4E0621343CB608C
:1065A000BFF34F8F00BFFDE7704700BF80000020A2
:1065B000FCFF0220EF6916F000ED00E00400FA0590
:1065C00070B544680E4600255CB1236831465B68AF
:1065D00020469847002802DB0544E468F4E74FF0C2
:1065E000FF35284670BD38B544680D463CB1236878
:1065F00029469B682046984710B9E468F6E720468C
:1066000038BD38B544680D463CB1236829461B683F
:106610002046984710B9E468F6E7204638BD38B5FB
:1066200044680D463CB123682946DB6820469847FC
:1066300010B9E468F6E7204638BD0000064A136842
:1066400013F0010306D1054940F202404B600123DB
:106650000880136001487047480D00204C0D002051
:1066600010B50346044653F8041B0A7842F00102B1
:106670000A7018464FF48072002100F0FCFC22687A
:1066800003469178C807FCD491788907F9D45362FE
:1066900010BD000030B5104B04681B68258D03F059
:1066A0001F011F2908BF052161F38A15258501688F
:1066B000C3F344120C8D1F2A08BF1D2262F3040489
:1066C0000C850268C3F38223118D072B08BF0323B7
:1066D00063F30E31118530BD84008000FFF740BCAC
:1066E00081F0004102E000BF83F0004330B54FEA83
:1066F00041044FEA430594EA050F08BF90EA020FF0
:106700001FBF54EA000C55EA020C7FEA645C7FEA82
:10671000655C00F0E2804FEA5454D4EB5555B8BFA5
:106720006D420CDD2C4480EA020281EA030382EA16
:10673000000083EA010180EA020281EA0303362DA8
:1067400088BF30BD11F0004F4FEA01314FF4801C7B
:106750004CEA113102D0404261EB410113F0004F8D
:106760004FEA03334CEA133302D0524263EB430344
:1067700094EA050F00F0A780A4F10104D5F1200EE2
:106780000DDB02FA0EFC22FA05F2801841F100013D
:1067900003FA0EF2801843FA05F359410EE0A5F111
:1067A00020050EF1200E012A03FA0EFC28BF4CF042
:1067B000020C43FA05F3C01851EBE37101F00045F8
:1067C00007D54FF0000EDCF1000C7EEB00006EEB05
:1067D0000101B1F5801F1BD3B1F5001F0CD349088F
:1067E0005FEA30004FEA3C0C04F101044FEA4452E6
:1067F00012F5800F80F09A80BCF1004F08BF5FEA6D
:10680000500C50F1000041EB045141EA050130BD4C
:106810005FEA4C0C404141EB010111F4801FA4F1EF
:106820000104E9D191F0000F04BF01460020B1FA44
:1068300081F308BF2033A3F10B03B3F120020CDA7C
:106840000C3208DD02F1140CC2F10C0201FA0CF05A
:1068500021FA02F10CE002F11402D8BFC2F1200CBF
:1068600001FA02F120FA0CFCDCBF41EA0C01904075
:10687000E41AA2BF01EB0451294330BD6FEA0404BE
:106880001F3C1CDA0C340EDC04F11404C4F12002A9
:1068900020FA04F001FA02F340EA030021FA04F3BB
:1068A00045EA030130BDC4F10C04C4F1200220FA12
:1068B00002F001FA04F340EA0300294630BD21FA50
:1068C00004F0294630BD94F0000F83F4801306BF16
:1068D00081F480110134013D4EE77FEA645C18BF0A
:1068E0007FEA655C29D094EA050F08BF90EA020FA1
:1068F00005D054EA000C04BF1946104630BD91EA99
:10690000030F1EBF0021002030BD5FEA545C05D19B
:106910004000494128BF41F0004130BD14F58004DA
:106920003CBF01F5801130BD01F0004545F0FE414E
:1069300041F470014FF0000030BD7FEA645C1ABF83
:10694000194610467FEA655C1CBF0B46024650EABA
:10695000013406BF52EA033591EA030F41F40021E6
:1069600030BD00BF90F0000F04BF0021704730B56C
:106970004FF4806404F132044FF000054FF0000141
:1069800050E700BF90F0000F04BF0021704730B502
:106990004FF4806404F1320410F0004548BF4042D7
:1069A0004FF000013EE700BF42004FEAE2014FEA2C
:1069B00031014FEA02701FBF12F07F4393F07F4F07
:1069C00081F06051704732F07F4208BF704793F00A
:1069D0007F4F04BF41F40021704730B54FF460741D
:1069E00001F0004521F000411CE700BF50EA010220
:1069F00008BF704730B54FF000050AE050EA0102C9
:106A000008BF704730B511F0004502D5404261EB38
:106A100041014FF4806404F132045FEA915C3FF479
:106A2000D8AE4FF003025FEADC0C18BF03325FEA16
:106A3000DC0C18BF033202EBDC02C2F1200300FAC7
:106A400003FC20FA02F001FA03FE40EA0E0021FAEC
:106A500002F11444BDE600BF70B54FF0FF0C4CF4DA
:106A6000E06C1CEA11541DBF1CEA135594EA0C0F8C
:106A700095EA0C0F00F0DEF82C4481EA030621EAC7
:106A80004C5123EA4C5350EA013518BF52EA033502
:106A900041F4801143F4801338D0A0FB02CE4FF0B4
:106AA0000005E1FB02E506F00042E0FB03E54FF0E4
:106AB0000006E1FB03569CF0000F18BF4EF0010EDC
:106AC000A4F1FF04B6F5007F64F5407404D25FEAD8
:106AD0004E0E6D4146EB060642EAC62141EA55518B
:106AE0004FEAC52040EA5E504FEACE2EB4F1FD0CCD
:106AF00088BFBCF5E06F1ED8BEF1004F08BF5FEA4B
:106B0000500E50F1000041EB045170BD06F00046FC
:106B100046EA010140EA020081EA0301B4EB5C04A9
:106B2000C2BFD4EB0C0541EA045170BD41F48011A1
:106B30004FF0000E013C00F3AB8014F1360FDEBFC6
:106B4000002001F0004170BDC4F10004203C35DAA2
:106B50000C341BDC04F11404C4F1200500FA05F325
:106B600020FA04F001FA05F240EA020001F00042C6
:106B700021F0004110EBD37021FA04F642EB06013C
:106B80005EEA430E08BF20EAD37070BDC4F10C0466
:106B9000C4F1200500FA04F320FA05F001FA04F22A
:106BA00040EA020001F0004110EBD37041F1000116
:106BB0005EEA430E08BF20EAD37070BDC4F1200521
:106BC00000FA05F24EEA020E20FA04F301FA05F289
:106BD00043EA020321FA04F001F0004121FA04F231
:106BE00020EA020000EBD3705EEA430E08BF20EA01
:106BF000D37070BD94F0000F0FD101F0004640003B
:106C000041EB010111F4801F08BF013CF7D041EABC
:106C1000060195F0000F18BF704703F000465200C0
:106C200043EB030313F4801F08BF013DF7D043EA91
:106C30000603704794EA0C0F0CEA135518BF95EA47
:106C40000C0F0CD050EA410618BF52EA4306D1D1CE
:106C500081EA030101F000414FF0000070BD50EAED
:106C6000410606BF1046194652EA430619D094EA77
:106C70000C0F02D150EA013613D195EA0C0F05D161
:106C800052EA03361CBF104619460AD181EA0301B5
:106C900001F0004141F0FE4141F470014FF000006D
:106CA00070BD41F0FE4141F4780170BD70B54FF008
:106CB000FF0C4CF4E06C1CEA11541DBF1CEA135588
:106CC00094EA0C0F95EA0C0F00F0A7F8A4EB05046A
:106CD00081EA030E52EA03354FEA013100F0888061
:106CE0004FEA03334FF0805545EA131343EA12632A
:106CF0004FEA022245EA111545EA10654FEA0026DF
:106D00000EF000419D4208BF964244F1FD0404F597
:106D1000407402D25B084FEA3202B61A65EB0305F3
:106D20005B084FEA32024FF480104FF4002CB6EBB0
:106D3000020E75EB030E22BFB61A754640EA0C0030
:106D40005B084FEA3202B6EB020E75EB030E22BF70
:106D5000B61A754640EA5C005B084FEA3202B6EBB1
:106D6000020E75EB030E22BFB61A754640EA9C0070
:106D70005B084FEA3202B6EB020E75EB030E22BF40
:106D8000B61A754640EADC0055EA060E18D04FEAFE
:106D9000051545EA16754FEA06164FEAC30343EA9E
:106DA00052734FEAC2025FEA1C1CC0D111F4801F6B
:106DB0000BD141EA00014FF000004FF0004CB6E764
:106DC00011F4801F04BF01430020B4F1FD0C88BF03
:106DD000BCF5E06F3FF6AFAEB5EB030C04BFB6EB0E
:106DE000020C5FEA500C50F1000041EB045170BD01
:106DF0000EF0004E4EEA113114EB5C04C2BFD4EB2E
:106E00000C0541EA045170BD41F480114FF0000EB1
:106E1000013C90E645EA060E8DE60CEA135594EA2D
:106E20000C0F08BF95EA0C0F3FF43BAF94EA0C0F30
:106E30000AD150EA01347FF434AF95EA0C0F7FF4A5
:106E400025AF104619462CE795EA0C0F06D152EAF9
:106E500003353FF4FDAE1046194622E750EA4106DD
:106E600018BF52EA43067FF4C5AE50EA41047FF4EE
:106E70000DAF52EA43057FF4EBAE12E74FF0FF3C53
:106E800006E000BF4FF0010C02E000BF4FF0010C24
:106E90004DF804CD4FEA410C7FEA6C5C4FEA430C9D
:106EA00018BF7FEA6C5C1BD001B050EA410C0CBFEC
:106EB00052EA430C91EA030F02BF90EA020F00204E
:106EC000704710F1000F91EA030F58BF994208BFB5
:106ED00090422CBFD8176FEAE37040F00100704772
:106EE0004FEA410C7FEA6C5C02D150EA013C07D1C9
:106EF0004FEA430C7FEA6C5CD6D152EA033CD3D014
:106F00005DF8040B704700BF8446104662468C460D
:106F10001946634600E000BF01B5FFF7B7FF002840
:106F200048BF10F1000F01BD4DF808EDFFF7F4FF69
:106F30000CBF012000205DF808FB00BF4DF808EDF4
:106F4000FFF7EAFF34BF012000205DF808FB00BF17
:106F50004DF808EDFFF7E0FF94BF012000205DF839
:106F600008FB00BF4DF808EDFFF7CEFF94BF0120EE
:106F700000205DF808FB00BF4DF808EDFFF7C4FFE7
:106F800034BF012000205DF808FB00BF4FEA410C30
:106F90007FEA6C5C02D150EA013C0AD14FEA430C13
:106FA0007FEA6C5C02D152EA033C02D14FF0000050
:106FB00070474FF0010070474A0011D212F50012DD
:106FC00011D20DD56FF47873B3EB62520ED44FEA41
:106FD000C12343F0004343EA505323FA02F07047C1
:106FE0004FF00000704750EA013002D14FF0FF30FF
:106FF00070474FF00000704770B50D4E0D4CA41B4C
:10700000A4100025A54209D10B4E0C4C03F02EFE16
:10701000A41BA4100025A54205D170BD56F825304B
:1070200098470135EEE756F8253098470135F2E7E5
:107030005402002054020020540200206402002068
:10704000024B0146186800F06DB800BF84000020B4
:10705000024B0146186800F017B800BF84000020FA
:1070600010B5431E0A44914200D110BD11F8014BE6
:1070700003F8014FF7E702440346934200D17047FB
:1070800003F8011BF9E7000038B50546002945D093
:1070900051F8043C0C1F002BB8BFE41802F0A8FF05
:1070A0001F4A1368104633B9636014602846BDE870
:1070B000384002F09EBFA3420CD921686218934267
:1070C00004BF1A685B68636004BF521822600460E2
:1070D000ECE713465A680AB1A242FAD9196858185F
:1070E000A0420BD120680144581882421960DDD1BA
:1070F000106852685A6001441960D7E702D90C231E
:107100002B60D3E7206821188A4204BF11685268B7
:10711000626004BF091821605C60C7E738BD00BF2A
:10712000540D002070B5CD1C25F0030508350C2D3D
:1071300038BF0C25002D064601DBA94203D90C23DC
:107140003360002070BD02F053FF214A14682146CD
:1071500091B9204C23681BB9304600F07BFE2060BB
:107160002946304600F076FE431C24D10C233360C0
:10717000304602F03EFFE4E70B685B1B18D40B2B94
:107180000FD90B60CD50CC18304602F032FF04F11D
:107190000B00231D20F00700C31AD3D05A42E2503F
:1071A000D0E78C424B6816BF636013600C46EBE778
:1071B0000C464968CCE7C41C24F00304A04205D067
:1071C000211A304600F046FE0130CFD02560DBE7C3
:1071D000540D0020580D00202DE9FF4755EC104BB1
:1071E0000D9FDDF830A0002D0E4691461946B8BF20
:1071F00022462B4627F02007BBBF05F100431D4662
:1072000000232D23B8BF1446462F0B7004D0452F02
:1072100000D10136022100E0032103AB019302AB50
:1072200000933246534645EC104B01F08DFD472F3D
:10723000804602D119F0010F26D0462F08EB06092F
:1072400011D198F80030302B0AD1002200232046BB
:107250002946FFF769FE18B9C6F10106CAF80060B1
:10726000DAF8003099440022002320462946FFF72F
:107270005BFE38B93022039B4B4505D2591C039164
:107280001A70F8E7CDF80C90039B0E9AA3EB080355
:107290004046136004B0BDE8F087F7B50029044606
:1072A000BABF49422D232B23092904F8022B43702E
:1072B00020DD0DF107031F460A2691FBF6F506FBBC
:1072C00015113031092D03F8011C03F1FF32294655
:1072D00009DC3031023B02F8011CBB42224604D3D8
:1072E000101A03B0F0BD1346E7E713F8012B04F8BA
:1072F000012BF2E7302319448370021DC170EFE7C0
:107300002DE9F04F8DB00C46DDF8588016461F462B
:10731000054602F0FDFD03680493184600F0D0FD19
:1073200000230A93D8F800300590073323F00703B1
:1073300003F1080294F818A0D4F800B0C8F80020AF
:10734000D3E90023C4E91223D4E9128929F00043C8
:107350000793CDF818804FF0FF32A74BDDE9060107
:10736000FFF714FE70BB4FF0FF32A34BDDE90601BF
:10737000FFF7EEFD30BB0022002340464946FFF7F1
:10738000DDFD10B12D2384F843309C4A9C4BBAF1AB
:10739000470F8CBF9046984603232BF004022361CD
:1073A00022604FF00009009733460BAA2146284679
:1073B00000F0E6F9013040F08D804FF0FF300DB065
:1073C000BDE8F08F42464B4640464946FFF7DEFD9A
:1073D00010B18C4A8C4BDAE761684B1C4BF480622D
:1073E0000AA83ED1062363600023CDE9020309AB5E
:1073F000009349EC108B0DF123032260CDF804A01B
:1074000061682846FFF7E8FE0AF0DF03472B804655
:1074100009D1099BD81C02DB6268934247DDAAF1BF
:10742000020A5FFA8AFABAF1650F099924D801397C
:10743000524604F150000991FFF72FFF0A9A1318E2
:10744000012A8146236102DC2268D10701D501337C
:1074500023619DF82330002BA5D02D2384F84330E1
:10746000A1E7BAF1670F00F07781BAF1470FBBD1FE
:107470000029B9D10123B6E7BAF1660F19D1002965
:1074800063680CDD216113B92268D20702D501338C
:107490000B442361099BA3654FF00009D9E713B999
:1074A0002268D00701D50233F3E70123F1E74FF05B
:1074B000670ADDE90932934205DB22682361D107BF
:1074C000E8D50133E5E7002BD4BFC3F10203012364
:1074D0001344DEE723685A0507D423694246314640
:1074E0002846B84701302BD167E7BAF1650F40F263
:1074F000DC8000220023D4E91201FFF715FD0028EB
:1075000033D00123414A31462846B84701303FF481
:1075100054AFDDE909239A4202DB2368D8070FD56F
:10752000DDE9042331462846B84701303FF445AF32
:107530004FF0000804F11A090A9B013B434509DC9E
:1075400023689B0700F10381E0680B9B9842B8BF5A
:10755000184634E701234A4631462846B8470130E9
:107560003FF42BAF08F10108E6E7099B002B2BDC69
:107570000123264A31462846B84701303FF41DAF63
:10758000099B23B90A9B13B92368D907D8D5DDE92C
:10759000042331462846B84701303FF40EAF4FF080
:1075A000000904F11A0A099B5B424B4501DC0A9B66
:1075B00094E70123524631462846B84701303FF44C
:1075C000FCAE09F10109EEE70A9AA36D9A42A8BF41
:1075D0001A46002A914607DD1346314642462846A0
:1075E000B84701303FF4E9AE04F11A034FF0000B45
:1075F00029EAE979069315E0FFFFEF7FB0B60000B6
:10760000ACB60000B8B60000B4B60000BCB60000CE
:107610000123069A31462846B84701303FF4CDAEE3
:107620000BF1010BD4F858A0AAEB09035B45EFDC82
:10763000DDE909239A42D04415DB2368DA0712D426
:107640000A9B0999A3EB0A02A3EB010A9245A8BF82
:107650009246BAF1000F0EDC4FF000082AEAEA7AEF
:1076600004F11A0919E0DDE9042331462846B84738
:107670000130E5D1A1E65346424631462846B84797
:107680000130E9D199E601234A4631462846B847F8
:1076900001303FF492AE08F10108DDE909239B1A9D
:1076A000A3EB0A034345EEDC4AE70A9A012A01DC10
:1076B000DB073AD50123424631462846B847013018
:1076C0003FF47BAEDDE9042331462846B84701305C
:1076D00008F101083FF471AE0A9B002203F1FF3A62
:1076E000D4E912010023FFF71FFCC8B953464246F4
:1076F00031462846B84701300ED15EE60123524696
:1077000031462846B84701303FF457AE08F101082A
:107710000A9B013B4345F1DC4B4604F15002DEE697
:107720004FF0000804F11A0AF2E70123DFE7012312
:107730004A4631462846B84701303FF43EAE08F18C
:107740000108E3680B9A9B1A4345F0DCFCE64FF016
:10775000000804F11909F4E700293FF48BAE002377
:10776000CDE9020309AB009349EC108B2260CDF800
:1077700004A00DF123032846FFF72EFD804648E6BE
:107780002DE9F04791461F468A680B69DDF8208095
:107790009342B8BF1346C9F8003091F8432006461B
:1077A0000C4612B10133C9F800302368990642BF74
:1077B000D9F800300233C9F80030256815F0060505
:1077C00007D104F1190AE368D9F800209B1AAB42EB
:1077D00028DC94F843302268003318BF0123920656
:1077E0002DD404F1430239463046C047013020D041
:1077F0002368E568D9F8002003F00603042B08BFCE
:10780000AD1AA36822690CBF25EAE57500259342ED
:10781000C4BF9B1AED184FF000091A344D451AD118
:10782000002008E00123524639463046C047013067
:1078300003D14FF0FF30BDE8F0870135C3E7E11811
:107840005A1C302081F84300224494F8451082F8F5
:1078500043100233C5E70123224639463046C0476C
:107860000130E6D009F10109D8E700002DE9F04325
:1078700001F1430C0C46097E85B06E291746064679
:1078800098460C9A00F0B38022D8632936D00AD8E3
:10789000002900F0B980582900F0838004F14205E6
:1078A00084F8421032E0642901D06929F6D12068B9
:1078B0001368050603F104012AD51B681160002B2B
:1078C00003DA2D225B4284F843206F480A2239E014
:1078D000732900F09D8008D86F2920D07029DDD150
:1078E000236843F02003236003E0752917D078292B
:1078F000D4D1782384F84530644855E01368191DC5
:107900001B68116004F1420584F8423001238CE0C9
:107910001B68116010F0400F18BF1BB2CFE713684F
:107920002568181D1060280601D51B6802E068064E
:10793000FBD51B8854486F2914BF0A220822002156
:1079400084F843106568A560002DC0F29580216819
:1079500021F004012160002B3DD1002D40F08E80EC
:107960006546082A0BD12368DB0708D523696268BE
:107970009A42DEBF302305F8013C05F1FF35ACEB40
:1079800005032361CDF800803B4603AA214630461B
:10799000FFF7F6FE01304DD14FF0FF3005B0BDE8E6
:1079A000F083394884F84510136821681D1D1B6851
:1079B00015600A060BD5CA0744BF41F020012160BB
:1079C0001BB9226822F0200222601022B7E74D0680
:1079D00048BF9BB2EFE76546B3FBF2F102FB113300
:1079E000C35C05F8013D0B460029F5D1B9E71368E2
:1079F00025686169181D106028061B6801D519608B
:107A000002E06A06FBD51980002323616546B9E7C9
:107A10001368191D11601D6862680021284602F074
:107A200097FA08B1401B606063682361002384F803
:107A30004330A7E723692A4639463046C04701301C
:107A4000AAD023689B0713D4E068039B9842B8BF71
:107A50001846A3E701234A4639463046C04701305D
:107A60009AD00135E368039A9B1AAB42F2DCEBE74C
:107A7000002504F11909F5E7002BACD1037884F84F
:107A8000423004F142056CE7BEB60000CFB60000FC
:107A90002DE9F04F9A468B6816465A1EB2F5AE7F16
:107AA00087B083BF6FF4AE729B180193002386BF2B
:107AB00040F25D138B6001930B6888464FF0000B1A
:107AC00043F4F06348F81C3BCDE903BB07460C4682
:107AD00045465A46D946CDF808B0A16881B1336809
:107AE0001B78492B71D04DD8392B40D8312B80F0E1
:107AF00088802D2B00F0908015D82B2B00F08C80E7
:107B0000B9F1000F03D0236823F480732360013A96
:107B1000012A00F2EA80454500F2DC800126304669
:107B200007B0BDE8F08F2E2B00F09F80302BE7D1FF
:107B3000206810F4807F64D0019B20F080002060DA
:107B400009F101091BB1013B01310193A160A36857
:107B5000013BA3602369013323617368013B002B60
:107B6000736040F3AC80336801333360B5E7452B75
:107B700000F08580462B6AD0412BC1D1012ABFD1AC
:107B8000022246E0652B7AD018D8542B66D011D843
:107B90004E2BB5D1002A46D1B9F1000F45D121684D
:107BA00001F4E060B0F5E06F3FD121F4F0612160B5
:107BB00001222EE0592B1ED0612BDEE76E2BE9D07F
:107BC00015D8662B43D0692B9AD1BBF1000F38D161
:107BD000B9F1000F97D1216801F4E060B0F5E06FD2
:107BE00095D121F4F06121604FF0010B11E0742B6D
:107BF00034D0792B84D1BBF1070F81D14FF0080B22
:107C000007E012EB0B0F7FF47BAF216821F4C0710A
:107C100021602B7001359AE7216808067FF570AF67
:107C200021F08001F4E7022A47D0BBF1010F03D015
:107C3000BBF1040F7FF464AF0BF1010B5FFA8BFB18
:107C4000E7E7BBF1030FF7D0BBF1050FF2E7BBF19C
:107C5000020F7FF455AF4FF0030BDAE7BBF1060FCD
:107C60007FF44EAF4FF0070BD3E7216888057FF50F
:107C700047AF21F420712160CDF80890C9E7216851
:107C800001F4A060B0F5806F06D048057FF538AFED
:107C9000B9F1000F3FF43BAF880558BF029821F4BB
:107CA000F06158BFA9EB000041F4C07158BFCDE9A5
:107CB000030521604FF00009ABE70322A9E7D4F8E0
:107CC00080310592314638469847059A00283FF49E
:107CD00004AF15E7D4F87C3115F8011D324638465B
:107CE00098472369013B236115E70BF1FF33062B0E
:107CF0000AD8BBF1020F68D9ABF1030B5FFA8BFB1B
:107D0000A5EB0B0B5D454BD12368DA051FD55B0551
:107D100068D415F8011C2369652903F1FF3305F1C7
:107D2000FF3B23610DD045290BD0D4F87C3132467E
:107D300038469847236915F8021C013BA5F1020B50
:107D40002361D4F87C313246384698475D46266830
:107D500016F010067AD12E70236803F4C063B3F5D1
:107D6000806F42D1029BA9EB03035A42002B49D1F9
:107D700000224146384600F0BBFE2568DAF80030A4
:107D800015F0020F03F1040259EC108BCAF8002021
:107D900043D01B68C3E90089E3680133E360BEE6B2
:107DA000D4F87C3115F8011D3246384698472369CE
:107DB000013B2361A6E7D4F87C3115F8011D32465A
:107DC000384698472369013B23614545F3D8A5E62A
:107DD000D4F87C3115F8011D32463846984723699E
:107DE000013B23614545F3D898E6039B002BBFD0A8
:107DF00004990A2332460131384600F005FF039BFF
:107E0000049DC21A04F26F139D4228BF04F5B77592
:107E10000F49284600F034F8AAE715F00405B8D158
:107E20001F6810EE102A4B4610EE100A4946FFF765
:107E3000ADF828B1284600F01DF887ED000AABE741
:107E40004046494602F0C2FE3860A5E7002666E6D5
:107E5000E0B6000038B5064C00230546084623600E
:107E6000FEF780F8431C02D1236803B12B6038BDB4
:107E70005C0D00209FED010A704700BF0000C07F2D
:107E80000EB400B59CB01DAB029006906FF000419F
:107E9000094807910491094953F8042B059100689A
:107EA000019302A902F00EFD029B00221A701CB081
:107EB0005DF804EB03B07047840000200802FFFF68
:107EC000034613F8012B002AFBD1181A013870471A
:107ED00070B504460D4645EC104B164602F056FBB5
:107EE00051EC100B7EB1C5F30A53C3F16B03002BA9
:107EF00009DD1B0503F17F55002405F540152246D9
:107F00002B46FEF7A9FD70BD2DE9F04F1F46A1B02D
:107F10000023814638460E4617921C9301F0F5FF68
:107F200080460068FFF7CCFF4FF0000A04464FF090
:107F3000000B1B961B9B1A780D2A32D8092A36D2C1
:107F4000002A3ED000230D931B9D2B78302B40F050
:107F5000AC806B78582B01D0782B67D10D9B0193A7
:107F60001CAB009302971DAB884A1BA9484601F041
:107F7000F2FC10F00704064605D0062C2BD1013583
:107F800000231B950D93179B002B40F09A850D9BAA
:107F9000E3B152460BF1004343EC102B21B0BDE896
:107FA000F08F2B2A15D02D2A04D0202ACAD10133D4
:107FB0001B93BFE701220D925A1C1B925B78002B8A
:107FC000C2D1179B1B96002B40F0798552465B4629
:107FD000E2E70022EFE71C9A3AB135211EA802F031
:107FE000CDFB1C99484602F039F8013C042C06D818
:107FF000DFE804F00A0314170A00DDE91EAB3007BE
:10800000C1D54BF0004BBEE7DDE91EA31D9A23F45A
:10801000801302F2334243EA025BF0E7DFF870B10B
:10802000EDE76FF0004B4FF0FF3AE8E71B9B5A1C5F
:108030001B925B78302BF9D0002BA4D001230025B4
:1080400006931B9B0893079505950A221B980778B2
:10805000A7F13003D9B2092929D92246D8F800104E
:1080600002F026FD002831D00020059C04903B46FC
:108070000246652B01D0452B14D124B910B9069BBB
:10808000002B9ED000241B9E731C1B9373782B2BFC
:1080900078D02D2B70D04FF0000CA3F13007092FB2
:1080A0007CD91B964FF0000E9AE00023C7E7059994
:1080B0000829DDBF079902FB0133079302FB053551
:1080C000059B0130013305931B90BFE71B9B1A19D9
:1080D0001B92059A1B5D002A37D0059C0246A3F12E
:1080E0003001092913D901210491C2E71B9B5A1CB5
:1080F0001B925B780130302BF8D0A3F13102082AB3
:1081000000F2E4841B9A0892024600200446B3F170
:10811000300E00F1010112D00A4400EB040C21469C
:108120000A278C4513D12118082904F101040444BD
:1081300019DC079B0A2101FB03E3079300211B9B2A
:10814000581C1B905B780846C9E70598D3E70829B7
:1081500001F1010103DC079B7B430793E1E7102951
:10816000D8BF7D43DDE7102CDCBF0A2101FB05E50C
:10817000E4E70123049381E74FF0010CB31C1B9348
:10818000B3788AE74FF0000CF8E700BFE8B60000CC
:108190000000F07F1B9B5F1C1B975B78302BF9D096
:1081A000A3F13107082F3FF67DAFA3F1300E1B9BE3
:1081B0000A931B9B5F1C1B975B78A3F13008B8F1F7
:1081C000090F37D90A997F1A082F44F61F6737DC41
:1081D000BE45A8BFBE46BCF1000F01D0CEF1000ED7
:1081E000002C51D100287FF4CEAE069A002A7FF4ED
:1081F000CAAE049A002A7FF4E4AE4E2B27D021DCCD
:10820000492B7FF4DEAEA0491BA801F0D7FD002862
:108210003FF4D7AE1B9B9D49013B1BA81B9301F06C
:10822000CDFD10B91B9B01331B93DFF874B24FF0E7
:10823000000AA8E60A2101FB0E3EAEF1300EB8E7B7
:10824000BE46C8E7692BDED06E2B7FF4BAAE9049EC
:108250001BA801F0B3FD00283FF4B3AE1B9B1B78B5
:10826000282B0ED11EAA8B491BA801F0BBFD0528A7
:1082700007D11F9BDDF878A043F0FF4B4BF4E00BD8
:1082800081E6DFF824B2D2E7AEEB02030693059B4A
:108290000798002B08BF2346102C0593A046A8BFC3
:1082A0004FF01008FEF75EFB092C82468B4613DC6C
:1082B000069B002B3FF467AE069B7ADD162B61DC34
:1082C000754A02EBC30EDEE9000152465B46FEF73B
:1082D000C3FB82468B4656E66F4B03EBC80353E95C
:1082E0001223FEF7B9FB064628460F46FEF73AFB77
:1082F00002460B4630463946FEF7F8F90F2C824607
:108300008B46D5DD069BA4EB08089844B8F1000F16
:1083100040F3968018F00F030AD05F4901EBC301C8
:1083200052465B46D1E90001FEF796FB82468B463A
:1083300038F00F0873D0B8F59A7F47DD0024A046C7
:10834000079405942223DFF858B1C9F800304FF0A4
:10835000000A079B002B3FF416AE1C99484601F01B
:108360007DFE0599484601F079FE4146484601F0F8
:1083700075FE0799484601F071FE2146484601F016
:108380006DFE00E6069AC4F125039342BADB424D26
:10839000C4F10F0405EBC40152465B46D1E900016C
:1083A000FEF75AFB069B1C1B05EBC405D5E9002311
:1083B0008DE713F1160FA5DB374AA2EBC302D2E912
:1083C000002350465946FEF771FC82E70023334EE6
:1083D0004FEA2818504659461D46B8F1010F21DCD6
:1083E0000BB182468B462D4BABF1547B03EBC5059D
:1083F00052465B46D5E90001FEF72EFB284B0A46A4
:108400000B4028498B42824698D8A1F580118B42B7
:1084100086BFDFF898B04FF0FF3A02F1547B00239B
:10842000049377E018F0010F06D006EBC503D3E9FB
:108430000023FEF711FB012301354FEA6808CCE762
:10844000EDD0C8F1000818F00F020AD0124B03EB70
:10845000C20350465946D3E90023FEF727FC824663
:108460008B465FEA2818DAD0B8F11F0F20DD002410
:10847000A0460794059422234FF0000A4FF0000B0A
:10848000C9F8003065E700BFB1B600003BB7000097
:10849000B9B60000FCB60000E0B70000B8B70000B5
:1084A0000000F07F0000A07C0000F8FFFFFFEF7FDE
:1084B00018F0100318BF6A23A04D04935046594684
:1084C0000023B8F1000F00F30A810BB182468B46FE
:1084D000049BBBB1CBF30A53C3F16B03002B59468A
:1084E00010DD1F2B40F30781342BDEBF203B4FF004
:1084F000FF3202FA03F34FF0000ACCBF4FF05C7B6F
:1085000003EA010B0022002350465946FEF70CFDFA
:108510000028ACD1079B0093059A0899234648464A
:1085200001F0EEFD079000283FF408AF069A069B85
:10853000002AC3F10003A8BF00230E93002422EAFF
:10854000E2731693A046079B4846596801F052FD16
:10855000059000283FF4F6AE079B1A69023203F13A
:108560000C0192000C30FEF77BFD1EAA1DA94BECFE
:1085700010AB4846CDE908AB02F07EF81C9000280D
:108580003FF4E0AE0121484601F046FE8046002857
:108590003FF4D8AE1D9E1E9A002EABBF0E9B169BBD
:1085A000169D0E9FACBFF7189D1B049BF61A164430
:1085B000634B013E9E42C2F1360280F2AF809B1BAC
:1085C0001F2BA2EB03024FF0010100F39B8001FA85
:1085D00003F30F9300230A93BE18049BB74215447C
:1085E0001D443B46A8BF3346AB42A8BF2B46002BD9
:1085F000C2BFF61AED1AFF1A0E9BBBB141461A46CE
:10860000484601F0A9FE804600283FF49BAE014693
:108610001C9A484601F009FE0C9000283FF492AEE7
:108620001C99484601F01AFD0C9B1C93002E7ADC25
:10863000069B002B08DD169A0599484601F08CFE32
:10864000059000283FF47EAE002D08DD2A460599EE
:10865000484601F0CFFE059000283FF473AE002F8E
:1086600008DD41463A46484601F0C4FE80460028EF
:108670003FF468AE059A1C99484601F029FF04466C
:1086800000283FF45FAEC3680C930023C3604146EB
:1086900001F004FF002855DA0C9BE3B9BAF1000F92
:1086A00019D1CBF31303B3B92BF000431B0D1B05FA
:1086B000B3F1D66F0FD9636913B92369012B0ADDB2
:1086C00021460122484601F095FE4146044601F04C
:1086D000E5FE002867DC049B002B71D13DE618F015
:1086E000010F04D0D5E90023FEF7B6F901234FEAC4
:1086F00068080835E5E64FF0FF3202FA03F303EAB3
:108700000A0AFFE6C6F17F4606F57F0606F57B46B8
:10871000E23601FA06F30A930F915DE700230A930C
:1087200001230F9358E732461C99484601F062FE38
:108730001C9000287FF47CAF04E600BF10B7000057
:1087400002FCFFFF5D4640F086800C9ACBF31303DA
:108750002AB3AF4A934253D1049B5046D3B1AD4A9A
:108760002A40B2F1D46F4FF0FF3116D8120DC2F18A
:108770006B0301FA03F3984242D1A74B9D4202D109
:1087800001303FF4DFADA34B2B4003F5801B4FF0CE
:10879000000AA0E74FF0FF33EDE70B46EBE77BBBAA
:1087A000BAF1000F2CD104999A4A5B46F1B102EA62
:1087B0000B01B1F1D66F19DCB1F15C7F7FF75BAED5
:1087C000964A0023CDE9143250465946DDE9142378
:1087D000FEF742F982468B4600297FF4BEAD0028A1
:1087E0007FF4BBAD2223C9F80030B6E51340A3F5F2
:1087F00080136FEA135B6FEA0B5B4FF0FF3A6AE797
:108800000A9B93B12B423FF466AF0C9B049A5046EF
:10881000594673B1FFF75CFB02460B46DDE90801E0
:10882000FDF764FF82468B4655E70F9B13EA0A0F5C
:10883000E9E7FFF74DFB02460B46DDE90801FDF7CE
:1088400053FF0022002382468B46FEF76DFB002873
:108850007FF411AE3FE74146204601F05CFF57EC44
:10886000106B00224FF0804310EE100A3946FEF7DD
:108870006FFB002877D00C9B002B4AD0684B00225E
:10888000CDE90A23664F0026624B2B400F930F9AC7
:10889000644B9A4240F0CE80DDE90823DDE90A010D
:1088A000A5F1547B4BEC10ABCDE91423CDE90A01C3
:1088B00001F06CFEDDE90A0153EC102BFEF7CCF859
:1088C00052465B46FDF712FF0B465249564A194085
:1088D000914282465BD9099B02F15472934203D1C3
:1088E000089B01333FF42EADDFF82CB14FF0FF3A77
:1088F0001C99484601F0B2FB0599484601F0AEFBD1
:108900004146484601F0AAFB2146484601F0A6FB35
:1089100019E6BAF1000F1AD1CBF31303EBB9002219
:108920003F4B30463946FEF709FBC8B93046394659
:1089300000223E4BFEF790F806460F4607F1004333
:1089400018961993DDE91823CDE90A239CE7BAF1BB
:10895000010F02D1002D3FF48EAD0022344B8FE782
:108960000026324FEAE7314B304639460022FEF707
:1089700073F80C9B06460F4633B901F10043109083
:108980001193DDE91023DFE7CDE91067F9E703F183
:10899000547B049B002BABD12BF000431B0D0F9A93
:1089A0001B059A425D46A3D13946304602F0E6F8EF
:1089B000FDF7E8FF0B46024639463046FDF794FEC8
:1089C0000C9B06460F4633B9BAF1000F03D1CBF327
:1089D0001305002D6DD00AA3D3E900233046394694
:1089E000FEF7ACFA00287FF4B8AC07A3D3E9002364
:1089F00030463946FEF7C0FA00283FF479AFACE4C0
:108A00009535A094FFFFDF3F35E5AF350000E03F2F
:108A1000FFFF0F000000F07FFFFFEF7F00005039E5
:108A20000000F03F0000E07FFFFF9F7C0000E03F80
:108A30000000F0BF049B33B30F9BB3F1D46F22D877
:108A400027A3D3E9002330463946FEF781FAA0B1C7
:108A500039463046FEF7B0FA002808BF0120FDF77E
:108A600081FF0C9B06460F4603BB01F100431290A9
:108A70001393DDE91223CDE90A230B9B0F9A03F12F
:108A8000D6639B1A0B939DED080BDDE90AAB01F051
:108A90007DFD504653EC102B5946FDF7DDFFDDE917
:108AA0000823FDF723FE82468B4672E7CDE9126765
:108AB000DFE70DA3D3E90023FEF740FA9CE700238C
:108AC0000D93179A1B9B1360FFF761BA652B4FF04C
:108AD00000023FF44EAB012114460491FFF7CBBADC
:108AE0000000C0FFFFFFDF419535A094FFFFCF3F9F
:108AF000054B1B6810B41B6A044C002B08BF2346AF
:108B00005DF8044BFFF700BA84000020E800002065
:108B10002DE9F0478046894692461E460F463D465F
:108B2000089815F8014B01F0EDF92044437813F053
:108B3000080332D12D2C32D17C78BD1C0122002EAD
:108B40005DD0102E09D1302C07D12B7803F0DF0334
:108B5000582B4FD16C7810260235002A14BF4FF0E5
:108B600000416FF000410027B1FBF6FC384606FBE0
:108B70001C1EA4F13003092B17D81C46A64223DD86
:108B80007B1C07D084451CD301D1A64519DB00FB13
:108B90000640012715F8014BEBE72F46BFE72B2CCA
:108BA00004BFBD1C7C781A46C9E7A4F14103192B08
:108BB00001D8373CE2E7A4F16103192B04D8573CF4
:108BC000DCE74FF0FF37E5E77B1C08D12223C8F82C
:108BD00000300846BAF1000F07D1BDE8F08702B1B6
:108BE0004042BAF1000FF8D00FB105F1FF39CAF8D1
:108BF0000090F2E73024002EAFD10826ADE7302CEC
:108C0000A3D00A26A9E7000037B5064C064D246814
:108C1000246A002C08BF2C460094FFF779FF03B0AC
:108C200030BD00BF84000020E80000202DE9F74F90
:108C300003690C69A3428046C0F28280013C01F1C5
:108C400014074FEA840C00F1140657F8245056F824
:108C5000240006EB0C03013507EB0C090193B0FB74
:108C6000F5F595B34FF0000A3846B646D34650F8AE
:108C7000042B93B205FB03A34FEA134A9BB2ABEB61
:108C80000303120CDEF800B005FB02A213FA8BF30B
:108C90004FEA124A1FFA82FBDEF80020CBEB1242A9
:108CA00002EB23429BB243EA024381454FEA224B47
:108CB0004EF8043BDBD256F80C3033B9019B043B31
:108CC0009E421A4630D3C8F81040404601F0E6FBF9
:108CD000002825DB013530464FF0000C57F8042BF7
:108CE000D0F800E093B2ACEB0303120C13FA8EF34E
:108CF000C2EB1E4202EB23429BB243EA0243B94558
:108D00004FEA224C40F8043BE8D256F8242006EB08
:108D100084032AB9043B9E421A460BD3C8F810407C
:108D2000284603B0BDE8F08F1268043B002ACAD180
:108D3000013CC5E71268043B002AEFD1013CEAE799
:108D40000020EEE7000000002DE9F04F57EC106B1B
:108D500097B0456A069104460B921293DDF8808025
:108D6000CDE900673DB91020FEF76AF96062C0E9FD
:108D700001550560C560636A196851B15A684A6057
:108D8000012393408B60204601F068F9636A00225A
:108D90001A603B1EBBBF23F0004301930023012256
:108DA000ACBFC8F80030C8F80020AF4BDDF8048035
:108DB00033EA080314D1129A42F20F731360009B36
:108DC00023B9C8F31300002800F04285219BDFF887
:108DD000ACB2002B00F044850BF1030300F03EBD64
:108DE000DDE900670022002330463946FEF79CF893
:108DF000814668B1129A01231360219B002B00F079
:108E000024859A4B219A03F1FF3B136000F028BDA3
:108E100014AA15A947EC106B204601F02DFCC8F3ED
:108E20000A550490002D7CD0C7F3130343F07F5BF9
:108E3000B2464BF4401BA5F2FF35CDF84C90002212
:108E40008B4B50465946FDF74FFC81A3D3E90023D5
:108E5000FDF702FE80A3D3E90023FDF747FC064699
:108E600028460F46FDF78EFD7DA3D3E90023FDF7CD
:108E7000F3FD02460B4630463946FDF737FC064601
:108E80000F4601F07BFE0022824600233046394621
:108E9000FEF754F848B15046FDF774FD32463B46A4
:108EA000FEF742F808B90AF1FF3ABAF1160F59D89D
:108EB000704901EBCA01DDE90023D1E90001FEF7A9
:108EC0005BF8002850D00AF1FF3A00230F93149B5F
:108ED0005D1BB5F1010849BFC5F1010300230593EE
:108EE0004FF0000858BF0593BAF1000F3EDB002396
:108EF000D044CDF838A00793069B092B00F2908050
:108F0000052BC4BF043B0693069BA3F10203CCBF11
:108F100000250125032B00F28F80DFE803F07D7F21
:108F20003171DDE914531D4405F23240202813DD70
:108F3000C0F14000009B08FA00F805F2124023FA45
:108F400000F048EA0000FDF70DFD01238246A1F183
:108F5000F87B013D139372E7009BC0F1200003FAF8
:108F600000F0F0E70123B1E70F90B0E7059BA3EB1A
:108F70000A030593CAF10003079300230E93BBE78E
:108F800001230A930B9B002B59DD02939946666AD5
:108F900000227260042202F114009842716853D9D1
:108FA000204601F027F8636A3060B9F10E0FD3F85C
:108FB00000B000F2E680002D00F0E3809DED007B24
:108FC000BAF1000F8DED107B74DD2A4A0AF00F0311
:108FD00002EBC30393ED007B4FEA2A16F0068DEDFA
:108FE000087B65D5244BDDE91001D3E90823FDF7A3
:108FF0005DFECDE9000106F00F0603251E4F4CE093
:1090000001230A930B9B534403F1010902934B463E
:10901000012BB8BF0123BAE70023B2E70023F0E732
:109020000125002306930A954FF0FF3302939946DA
:10903000002212230B92AAE701230A93F4E70123EB
:10904000029399461A46F5E7013171605200A2E792
:1090500061436F63A787D23FB3C8608B288AC63F3E
:10906000FB799F501344D33F0000F07FBDB6000052
:109070000000F83FE0B70000B8B7000041B70000BB
:10908000F10708D5DDE90801D7E90023FDF7E4FC85
:10909000CDE90801013576100837002EF0D1DDE961
:1090A0000823DDE90001FDF701FECDE900011AE02A
:1090B0000225A3E700F0A080CAF100069F4BA04F55
:1090C00006F00F0203EBC203D3E90023DDE9100130
:1090D000FDF7C2FCCDE90001361100230225002E68
:1090E0007FD1002BE1D10F9B002B00F08780DDE9C1
:1090F00000670022934B30463946FDF71FFF0028DA
:109100007CD0B9F1000F79D0029B002B35DD0AF13C
:10911000FF330893394600228B4B3046FDF79CFC09
:10912000CDE90001029F01352846FDF72BFCDDE962
:109130000023FDF791FC0022844BFDF7D7FA05468A
:10914000A1F15076002F5DD10022814BDDE90001B5
:10915000FDF7CAFA2A463346CDE90001FDF70CFFB8
:10916000002840F088822A4606F10043DDE900012C
:10917000FDF7E4FE002840F07C82DDE91023CDE914
:109180000023159B002BC0F25081BAF10E0F00F3A3
:109190004C816A4B03EBCA0393ED007B0B9B002BC6
:1091A0008DED027B80F2D880B9F1000F00F3D480FE
:1091B00040F05E820022664B51EC170BFDF74CFC31
:1091C000DDE90023FDF7CEFE4F464E46002840F075
:1091D000348231230BF101058BF800300AF1010ACA
:1091E0002FE2F20705D5D7E90023FDF735FC01355D
:1091F00001237610083772E7022574E7CDF820A026
:109200004F4691E74D4B03EBC70353E902010A9B1D
:10921000002B47D002460B4600204E49FDF746FD85
:109220002A463346FDF760FACDE90C015D46DDE9DB
:10923000000101F0A3FC0646FDF7A4FB02460B4625
:10924000DDE90001FDF750FA303605F8016BDDE984
:109250000C23CDE90001FDF771FE002863D1DDE9A3
:10926000002300203749FDF73FFADDE90C23FDF725
:1092700065FE002840F0B780A5EB0B039F427FF707
:109280007CAF0022304BDDE90C01FDF7E5FB00224D
:10929000CDE90C012C4BDDE90001FDF7DDFBCDE94B
:1092A0000001C4E72A463346FDF7D6FBCDE90C01A1
:1092B0000BEB07055E46DDE9000101F05FFC0746A8
:1092C000FDF760FB303702460B46DDE90001FDF794
:1092D0000BFA06F8017BAE42CDE900014FF0000227
:1092E00026D11C4BDDE90C01FDF700FA02460B46C6
:1092F000DDE90001FDF740FE002874D1DDE90C2313
:1093000000201449FDF7F0F902460B46DDE90001A3
:10931000FDF714FE00283FF430AF15F8013C302B68
:1093200005F1FF3202D0DDF820A04AE01546F4E74F
:10933000054BFDF791FBCDE90001BCE7E0B700006C
:10934000B8B700000000F03F0000244000001C40BF
:10935000000014400000E03FDDE900675D46DDE904
:10936000022330463946FDF7A1FC01F007FC804698
:10937000FDF708FBDDE90223FDF76EFB02460B4615
:109380003046394608F13006FDF7AEF905F8016BB5
:10939000A5EB0B06B14502460B4639D1FDF7A6F900
:1093A000DDE9022306460F46FDF7E6FDC8B9DDE913
:1093B000022330463946FDF7B7FD10B118F0010F12
:1093C0000FD10499204600F049FE0023129A2B7019
:1093D0000AF101031360219B002B00F041821D6004
:1093E0003EE2CDF820A015F8012C392A05F1FF3313
:1093F00008D19B450AD1089B0133089330238BF891
:1094000000305B461A7801321A708CE71D46EAE795
:1094100000229B4BFDF720FB0022002306460F464F
:10942000FDF782FD00289AD0CBE70A9A002A00F0C7
:109430008B80069A012A6EDC139A002A67D003F209
:109440003343079F059D059A01211A442046059242
:10945000984400F0E1FE0646002D0CDDB8F1000F47
:1094600009DD4545059A2B46A8BF4346D21A059209
:10947000ED1AA8EB0308079BEBB10A9B002B67D002
:109480008FB131463A46204600F066FF049A014605
:109490000646204600F0C9FE04990890204600F0D8
:1094A000DDFD089B0493079BDA1B04D0049920463A
:1094B00000F052FF04900121204600F0ADFE0E9B0B
:1094C0000746002B00F0D0811A460146204600F0E6
:1094D00043FF069B012B074640DC009B002B39D144
:1094E000019BC3F31303002B36D1019B23F00043F0
:1094F0001B0D1B052BB1059B0133059308F10108DA
:10950000012307930E9B002B2AD1012030E0149BEE
:10951000C3F1360395E7079B09F1FF37BB42BFBF95
:10952000079B0797FA1A0E9BBBBF9B180E93DF1B76
:109530000027B9F1000FB5BF059B059DA3EB0905F9
:109540004B46B8BF00237EE7079F059D0A9E83E731
:10955000079AABE70023D4E7009BD2E700230793E9
:109560003B6907EB8303186900F008FEC0F1200097
:10957000404410F01F0047D0C0F12003042B3BDD16
:10958000059BC0F11C000344059305448044059BE2
:10959000002B05DD1A460499204600F02BFF0490AD
:1095A000B8F1000F05DD39464246204600F022FFA3
:1095B00007460F9B53B33946049800F06FFF00280D
:1095C00024DA00230A220499204600F05EFD0A9B5B
:1095D00004900AF1FF3A002B00F04D810023314640
:1095E0000A22204600F051FD029B002B06464FDC6C
:1095F000069B022B4CDD11E0C9D0059A1C331A449E
:1096000005921D449844C2E70346F6E7B9F1000FFE
:1096100038DC069B022B35DDCDF80890029B63B940
:1096200039460522204600F030FD014607460498E1
:1096300000F034FF00283FF7CCAD0B9B5D466FEA8E
:10964000030A4FF000093946204600F007FD002EBE
:109650003FF4B7AEB9F1000F05D0B14503D049468C
:10966000204600F0FBFC3146204600F0F7FCA8E65F
:1096700000273E46E1E7DDF820A03E46A9E500BF11
:10968000000024400A9BCDF80890002B00F0FA80DF
:10969000002D05DD31462A46204600F0ABFE064689
:1096A000079B002B4CD07168204600F0A3FC326968
:1096B00002320546920006F10C010C30FDF7D0FC99
:1096C00001222946204600F095FE009BCDF814B0FB
:1096D00003F00103B1460793064639460498FFF7A5
:1096E000A5FA4946054600F13008049800F0D6FE78
:1096F000324600903946204600F0EAFEC368024632
:1097000003BB01460890049800F0C8FE089A03467F
:1097100011462046089300F0A1FC089BA3B9069AC5
:1097200092B9079A82B9B8F1390F29D0009B002B62
:1097300001DD05F13108059B5D1C83F8008082E79F
:109740003046C2E70123E3E7009A002A04DB25D173
:10975000069A1ABB079A0ABB002BECDD012204997A
:10976000204600F047FE3946049000F097FE00289E
:1097700003DCE0D118F0010FDDD0B8F1390FD8D1FA
:10978000059B059A5D1C3923137015F8013C392B94
:1097900005F1FF324FD00133137054E7059A002BC7
:1097A00002F1010506DDB8F1390FE9D008F1010831
:1097B000059BC2E7029A05F8018CA5EB0B039342C7
:1097C00021D000230A220499204600F05EFCB14516
:1097D00004904FF000034FF00A024946204605D19D
:1097E00000F053FC81460646059576E700F04DFCF7
:1097F0003146814600230A22204600F046FC0646F8
:10980000F2E74FF0000901220499204600F0F2FD32
:109810003946049000F042FE0028B6DC02D118F070
:10982000010FB2D115F8013C302B05F1FF327FF466
:109830000AAF1546F6E7934505D131230AF1010A2F
:109840008BF80030FFE615469FE7DFF864B007E0CD
:10985000219BDFF860B01BB10BF10803219A136064
:10986000584617B0BDE8F08F069B012B7FF735AE49
:109870000E9B079349E6029B002B03DC069B022B01
:109880003FF7CCAE5D4639460498FFF7CFF900F1BB
:10989000300805F8018B029AA5EB0B039A42B0DD64
:1098A00000230A220499204600F0EFFB0490EAE727
:1098B000BCB6000038B70000F0B506694B119E42F7
:1098C00000F1140430DD11F01F0104EB860604EBF7
:1098D000830208D12146B2420B4611D252F8043B12
:1098E00041F8043BF7E754F82350C1F1200CCD4078
:1098F00004322346B24217460CD31D6005B104332F
:109900001A1BA3424FEAA20208BF0023026108BF4C
:109910004361F0BD3F6807FA0CF73D4343F8045B31
:1099200052F8045BCD40E5E72346E9E7A0F13003B8
:10993000092B02D82038C0B27047A0F16103052B73
:1099400001D84738F7E7A0F14103052B01D82738A4
:10995000F1E7002070472DE9F04F8BB08A46029066
:1099600016980693904600F0D0FA036803931846C1
:10997000FEF7A6FA039B019003444FF0000B13F887
:10998000013C0793DAF8003002331F4613F8010B4D
:1099900030286CD0FFF7CAFF044600286AD1019A2C
:1099A0000399384601F084F8002866D1019BF85CE1
:1099B000FE18FFF7BBFF002862D033461878302826
:1099C0001F4603F10103F9D0FFF7B0FFB0FA80F5AD
:1099D0006D0934464FF0010B3A4616460132307895
:1099E000FFF7A4FF0028F8D1019A0399304601F04F
:1099F0005FF850B954B9019BF4182246164601325B
:109A00003078FFF793FF0028F8D10CB1A41BA40015
:109A10003378502B01D0702B40D173782B2B31D061
:109A20002D2B33D0711C4FF000090878FFF77EFF13
:109A3000431EDBB2182B31D8A0F1100211F8010F30
:109A4000FFF774FF431EDBB2182B22D9B9F1000FC8
:109A500000D052421444CAF800100DB3BBF1000FFD
:109A60000CBF0627002738460BB0BDE8F08F0BF17E
:109A7000010B8AE700252C46AEE73E460125C7E7E5
:109A80000446FBE74FF00009B11CCEE74FF0010997
:109A9000FAE70A2303FB0202103ACFE73146DAE77E
:109AA000F31B013B2946072B49DC029800F0A2FA80
:109AB000019B00F114094FF0000BC3F101030546AF
:109AC000CDF81090DA460893B7423BD3049840F89B
:109AD00004ABA0EB0900801028614701504600F05C
